{
  "contractName": "Lottery",
  "abi": [
    {
      "inputs": [],
      "payable": false,
      "stateMutability": "nonpayable",
      "type": "constructor"
    },
    {
      "constant": true,
      "inputs": [],
      "name": "manager",
      "outputs": [
        {
          "internalType": "address",
          "name": "",
          "type": "address"
        }
      ],
      "payable": false,
      "stateMutability": "view",
      "type": "function"
    },
    {
      "constant": true,
      "inputs": [
        {
          "internalType": "uint256",
          "name": "",
          "type": "uint256"
        }
      ],
      "name": "players",
      "outputs": [
        {
          "internalType": "address payable",
          "name": "",
          "type": "address"
        }
      ],
      "payable": false,
      "stateMutability": "view",
      "type": "function"
    },
    {
      "constant": false,
      "inputs": [],
      "name": "winner",
      "outputs": [],
      "payable": false,
      "stateMutability": "nonpayable",
      "type": "function"
    },
    {
      "constant": false,
      "inputs": [],
      "name": "enter",
      "outputs": [],
      "payable": true,
      "stateMutability": "payable",
      "type": "function"
    },
    {
      "constant": true,
      "inputs": [],
      "name": "getPlayers",
      "outputs": [
        {
          "internalType": "address payable[]",
          "name": "",
          "type": "address[]"
        }
      ],
      "payable": false,
      "stateMutability": "view",
      "type": "function"
    }
  ],
  "bytecode": "0x608060405234801561001057600080fd5b50336000806101000a81548173ffffffffffffffffffffffffffffffffffffffff021916908373ffffffffffffffffffffffffffffffffffffffff160217905550610640806100606000396000f3fe60806040526004361061004a5760003560e01c8063481c6a751461004f5780638b5b9ccc146100a6578063dfbf53ae14610112578063e97dcb6214610129578063f71d96cb14610133575b600080fd5b34801561005b57600080fd5b506100646101ae565b604051808273ffffffffffffffffffffffffffffffffffffffff1673ffffffffffffffffffffffffffffffffffffffff16815260200191505060405180910390f35b3480156100b257600080fd5b506100bb6101d3565b6040518080602001828103825283818151815260200191508051906020019060200280838360005b838110156100fe5780820151818401526020810190506100e3565b505050509050019250505060405180910390f35b34801561011e57600080fd5b50610127610261565b005b6101316103b0565b005b34801561013f57600080fd5b5061016c6004803603602081101561015657600080fd5b8101908080359060200190929190505050610431565b604051808273ffffffffffffffffffffffffffffffffffffffff1673ffffffffffffffffffffffffffffffffffffffff16815260200191505060405180910390f35b6000809054906101000a900473ffffffffffffffffffffffffffffffffffffffff1681565b6060600180548060200260200160405190810160405280929190818152602001828054801561025757602002820191906000526020600020905b8160009054906101000a900473ffffffffffffffffffffffffffffffffffffffff1673ffffffffffffffffffffffffffffffffffffffff168152602001906001019080831161020d575b5050505050905090565b6000809054906101000a900473ffffffffffffffffffffffffffffffffffffffff1673ffffffffffffffffffffffffffffffffffffffff163373ffffffffffffffffffffffffffffffffffffffff16146102b757fe5b60006001805490506102c761046d565b816102ce57fe5b069050600181815481106102de57fe5b9060005260206000200160009054906101000a900473ffffffffffffffffffffffffffffffffffffffff1673ffffffffffffffffffffffffffffffffffffffff166108fc3073ffffffffffffffffffffffffffffffffffffffff16319081150290604051600060405180830381858888f19350505050158015610365573d6000803e3d6000fd5b5060006040519080825280602002602001820160405280156103965781602001602082028038833980820191505090505b50600190805190602001906103ac92919061053e565b5050565b662386f26fc1000034116103c057fe5b455a106103c957fe5b60013390806001815401808255809150509060018203906000526020600020016000909192909190916101000a81548173ffffffffffffffffffffffffffffffffffffffff021916908373ffffffffffffffffffffffffffffffffffffffff16021790555050565b6001818154811061043e57fe5b906000526020600020016000915054906101000a900473ffffffffffffffffffffffffffffffffffffffff1681565b600044306001604051602001808481526020018373ffffffffffffffffffffffffffffffffffffffff1673ffffffffffffffffffffffffffffffffffffffff1660601b8152601401828054801561051957602002820191906000526020600020905b8160009054906101000a900473ffffffffffffffffffffffffffffffffffffffff1673ffffffffffffffffffffffffffffffffffffffff16815260200190600101908083116104cf575b505093505050506040516020818303038152906040528051906020012060001c905090565b8280548282559060005260206000209081019282156105b7579160200282015b828111156105b65782518260006101000a81548173ffffffffffffffffffffffffffffffffffffffff021916908373ffffffffffffffffffffffffffffffffffffffff1602179055509160200191906001019061055e565b5b5090506105c491906105c8565b5090565b61060891905b8082111561060457600081816101000a81549073ffffffffffffffffffffffffffffffffffffffff0219169055506001016105ce565b5090565b9056fea265627a7a723158201bfd83ce5a0038d31f36188d0069fedfcde5874c741e61d6ba2cc0a61a24bf2164736f6c634300050c0032",
  "source": "pragma solidity 0.5.12;\r\ncontract Lottery {\r\n    address public manager;\r\n    address payable[] public players;\r\n\r\n    constructor() public {\r\n        manager = msg.sender;\r\n    }\r\n\r\n    function genRandom() private view returns(uint256) {\r\n        return uint256(keccak256(abi.encodePacked(block.difficulty, address(this), players)));\r\n    }\r\n\r\n    function winner() public restricted {\r\n\r\n        // assert(msg.sender == manager && players.length != 0);\r\n        uint i = genRandom() % players.length;\r\n        players[i].transfer(address(this).balance);\r\n        // Reset players\r\n        players = new address payable[](0);\r\n    }\r\n\r\n    function enter() public payable {\r\n        assert(msg.value > .01 ether);\r\n        assert(gasleft() < block.gaslimit);\r\n        players.push(msg.sender);\r\n    }\r\n    modifier restricted(){\r\n        //Only manager can call the function\r\n        assert(msg.sender == manager);\r\n        _;\r\n    }\r\n\r\n    function getPlayers() public view returns(address payable[] memory) {\r\n        return players;\r\n    }\r\n}",
  "sourcePath": "D:/PROGRAMMING/Github/Solidity-Smart-Contracts/solidity/contracts/Lottery.sol",
  "compiler": {
    "name": "solc",
    "version": "0.5.12+commit.7709ece9.Emscripten.clang"
  },
  "schemaVersion": "3.0.19",
  "updatedAt": "2019-12-12T16:12:42.675Z",
  "networkType": "ethereum",
  "devdoc": {
    "methods": {}
  },
  "userdoc": {
    "methods": {}
  }
}