{
  "contractName": "Lottery",
  "abi": [
    {
      "inputs": [],
      "payable": false,
      "stateMutability": "nonpayable",
      "type": "constructor"
    },
    {
      "constant": true,
      "inputs": [],
      "name": "manager",
      "outputs": [
        {
          "internalType": "address",
          "name": "",
          "type": "address"
        }
      ],
      "payable": false,
      "stateMutability": "view",
      "type": "function"
    },
    {
      "constant": true,
      "inputs": [
        {
          "internalType": "uint256",
          "name": "",
          "type": "uint256"
        }
      ],
      "name": "players",
      "outputs": [
        {
          "internalType": "address payable",
          "name": "",
          "type": "address"
        }
      ],
      "payable": false,
      "stateMutability": "view",
      "type": "function"
    },
    {
      "constant": true,
      "inputs": [
        {
          "internalType": "address",
          "name": "",
          "type": "address"
        }
      ],
      "name": "tickets",
      "outputs": [
        {
          "internalType": "uint256",
          "name": "",
          "type": "uint256"
        }
      ],
      "payable": false,
      "stateMutability": "view",
      "type": "function"
    },
    {
      "constant": true,
      "inputs": [],
      "name": "totalTickets",
      "outputs": [
        {
          "internalType": "uint256",
          "name": "",
          "type": "uint256"
        }
      ],
      "payable": false,
      "stateMutability": "view",
      "type": "function"
    },
    {
      "constant": false,
      "inputs": [],
      "name": "winner",
      "outputs": [
        {
          "internalType": "address",
          "name": "",
          "type": "address"
        }
      ],
      "payable": false,
      "stateMutability": "nonpayable",
      "type": "function"
    },
    {
      "constant": false,
      "inputs": [],
      "name": "enter",
      "outputs": [],
      "payable": true,
      "stateMutability": "payable",
      "type": "function"
    },
    {
      "constant": true,
      "inputs": [],
      "name": "getPlayers",
      "outputs": [
        {
          "internalType": "address payable[]",
          "name": "",
          "type": "address[]"
        }
      ],
      "payable": false,
      "stateMutability": "view",
      "type": "function"
    },
    {
      "constant": true,
      "inputs": [
        {
          "internalType": "bytes",
          "name": "player_address",
          "type": "bytes"
        }
      ],
      "name": "getTicketCount",
      "outputs": [
        {
          "internalType": "uint256",
          "name": "",
          "type": "uint256"
        }
      ],
      "payable": false,
      "stateMutability": "view",
      "type": "function"
    },
    {
      "constant": true,
      "inputs": [],
      "name": "getAllTicketCount",
      "outputs": [
        {
          "internalType": "uint256",
          "name": "",
          "type": "uint256"
        }
      ],
      "payable": false,
      "stateMutability": "view",
      "type": "function"
    }
  ],
  "bytecode": "0x608060405234801561001057600080fd5b50336000806101000a81548173ffffffffffffffffffffffffffffffffffffffff021916908373ffffffffffffffffffffffffffffffffffffffff160217905550610b3a806100606000396000f3fe6080604052600436106100865760003560e01c8063990760ec11610059578063990760ec146101de578063dd11247e146102ba578063dfbf53ae146102e5578063e97dcb621461033c578063f71d96cb1461034657610086565b8063481c6a751461008b5780636243d965146100e25780636dcbf2a31461010d5780638b5b9ccc14610172575b600080fd5b34801561009757600080fd5b506100a06103c1565b604051808273ffffffffffffffffffffffffffffffffffffffff1673ffffffffffffffffffffffffffffffffffffffff16815260200191505060405180910390f35b3480156100ee57600080fd5b506100f76103e6565b6040518082815260200191505060405180910390f35b34801561011957600080fd5b5061015c6004803603602081101561013057600080fd5b81019080803573ffffffffffffffffffffffffffffffffffffffff1690602001909291905050506103f0565b6040518082815260200191505060405180910390f35b34801561017e57600080fd5b50610187610408565b6040518080602001828103825283818151815260200191508051906020019060200280838360005b838110156101ca5780820151818401526020810190506101af565b505050509050019250505060405180910390f35b3480156101ea57600080fd5b506102a46004803603602081101561020157600080fd5b810190808035906020019064010000000081111561021e57600080fd5b82018360208201111561023057600080fd5b8035906020019184600183028401116401000000008311171561025257600080fd5b91908080601f016020809104026020016040519081016040528093929190818152602001838380828437600081840152601f19601f820116905080830192505050505050509192919290505050610496565b6040518082815260200191505060405180910390f35b3480156102c657600080fd5b506102cf6104e7565b6040518082815260200191505060405180910390f35b3480156102f157600080fd5b506102fa6104ed565b604051808273ffffffffffffffffffffffffffffffffffffffff1673ffffffffffffffffffffffffffffffffffffffff16815260200191505060405180910390f35b610344610792565b005b34801561035257600080fd5b5061037f6004803603602081101561036957600080fd5b81019080803590602001909291905050506108bb565b604051808273ffffffffffffffffffffffffffffffffffffffff1673ffffffffffffffffffffffffffffffffffffffff16815260200191505060405180910390f35b6000809054906101000a900473ffffffffffffffffffffffffffffffffffffffff1681565b6000600254905090565b60036020528060005260406000206000915090505481565b6060600180548060200260200160405190810160405280929190818152602001828054801561048c57602002820191906000526020600020905b8160009054906101000a900473ffffffffffffffffffffffffffffffffffffffff1673ffffffffffffffffffffffffffffffffffffffff1681526020019060010190808311610442575b5050505050905090565b6000600360006104a5846108f7565b73ffffffffffffffffffffffffffffffffffffffff1673ffffffffffffffffffffffffffffffffffffffff168152602001908152602001600020549050919050565b60025481565b60008060009054906101000a900473ffffffffffffffffffffffffffffffffffffffff1673ffffffffffffffffffffffffffffffffffffffff163373ffffffffffffffffffffffffffffffffffffffff161461054557fe5b6000809054906101000a900473ffffffffffffffffffffffffffffffffffffffff1673ffffffffffffffffffffffffffffffffffffffff163373ffffffffffffffffffffffffffffffffffffffff161480156105a75750600060018054905014155b6105ad57fe5b60006001805490506105bd610967565b816105c457fe5b069050600181815481106105d457fe5b9060005260206000200160009054906101000a900473ffffffffffffffffffffffffffffffffffffffff1673ffffffffffffffffffffffffffffffffffffffff166108fc3073ffffffffffffffffffffffffffffffffffffffff16319081150290604051600060405180830381858888f1935050505015801561065b573d6000803e3d6000fd5b5060006001828154811061066b57fe5b9060005260206000200160009054906101000a900473ffffffffffffffffffffffffffffffffffffffff16905060008090505b6001805490508161ffff16101561073a576003600060018361ffff16815481106106c457fe5b9060005260206000200160009054906101000a900473ffffffffffffffffffffffffffffffffffffffff1673ffffffffffffffffffffffffffffffffffffffff1673ffffffffffffffffffffffffffffffffffffffff16815260200190815260200160002060009055808060010191505061069e565b50600060405190808252806020026020018201604052801561076b5781602001602082028038833980820191505090505b5060019080519060200190610781929190610a38565b506000600281905550809250505090565b662386f26fc1000034116107a257fe5b455a106107ab57fe5b6000600360003373ffffffffffffffffffffffffffffffffffffffff1673ffffffffffffffffffffffffffffffffffffffff16815260200190815260200160002054141561085a5760013390806001815401808255809150509060018203906000526020600020016000909192909190916101000a81548173ffffffffffffffffffffffffffffffffffffffff021916908373ffffffffffffffffffffffffffffffffffffffff160217905550505b6001600360003373ffffffffffffffffffffffffffffffffffffffff1673ffffffffffffffffffffffffffffffffffffffff168152602001908152602001600020600082825401925050819055506001600260008282540192505081905550565b600181815481106108c857fe5b906000526020600020016000915054906101000a900473ffffffffffffffffffffffffffffffffffffffff1681565b600080600090506000600184510390505b600060018201111561095d57600084828151811061092257fe5b602001015160f81c60f81b60f81c60ff16905060006002600184885103030260100a8202905080840193505050808060019003915050610908565b5080915050919050565b600044306001604051602001808481526020018373ffffffffffffffffffffffffffffffffffffffff1673ffffffffffffffffffffffffffffffffffffffff1660601b81526014018280548015610a1357602002820191906000526020600020905b8160009054906101000a900473ffffffffffffffffffffffffffffffffffffffff1673ffffffffffffffffffffffffffffffffffffffff16815260200190600101908083116109c9575b505093505050506040516020818303038152906040528051906020012060001c905090565b828054828255906000526020600020908101928215610ab1579160200282015b82811115610ab05782518260006101000a81548173ffffffffffffffffffffffffffffffffffffffff021916908373ffffffffffffffffffffffffffffffffffffffff16021790555091602001919060010190610a58565b5b509050610abe9190610ac2565b5090565b610b0291905b80821115610afe57600081816101000a81549073ffffffffffffffffffffffffffffffffffffffff021916905550600101610ac8565b5090565b9056fea265627a7a72315820628d7059c1be997c6b70db80f246338958bd391aaef34c8dcdc04bdbba30e47b64736f6c634300050c0032",
  "source": "\r\npragma solidity 0.5.12;\r\ncontract Lottery {\r\n    address public manager;\r\n    address payable[] public players;\r\n    uint256 public totalTickets;\r\n    mapping(address => uint256) public tickets;\r\n\r\n    constructor() public {\r\n        manager = msg.sender;\r\n    }\r\n\r\n\r\n\r\n    function genRandom() private view returns(uint256) {\r\n        return uint256(keccak256(abi.encodePacked(block.difficulty, address(this), players)));\r\n    }\r\n\r\n    function winner() public restricted returns(address) {\r\n\r\n        assert(msg.sender == manager && players.length != 0);\r\n        uint i = genRandom() % players.length;\r\n        players[i].transfer(address(this).balance);\r\n        address winner = players[i];\r\n        // Reset players\r\n\r\n        for (uint16 j = 0; j < players.length; j++) {\r\n            delete tickets[players[j]];\r\n        }\r\n        players = new address payable[](0);\r\n        totalTickets = 0;\r\n        return winner;\r\n    }\r\n\r\n\r\n    function enter() public payable {\r\n        assert(msg.value > .01 ether);\r\n        assert(gasleft() < block.gaslimit);\r\n        if(tickets[msg.sender] == 0){\r\n            players.push(msg.sender);\r\n        }\r\n        tickets[msg.sender] += 1;\r\n        totalTickets +=1;\r\n    }\r\n    modifier restricted(){\r\n        //Only manager can call the function\r\n        assert(msg.sender == manager);\r\n        _;\r\n    }\r\n\r\n    function getPlayers() public view returns(address payable[] memory) {\r\n        return players;\r\n    }\r\n\r\n    function getTicketCount(bytes memory player_address) public view returns (uint256){\r\n        return tickets[bytesToAddress(player_address)];\r\n\r\n    }\r\n    function getAllTicketCount() public view returns (uint256){\r\n        return totalTickets;\r\n    }\r\n\r\n\r\n    function bytesToAddress (bytes memory b) private view returns (address) {\r\n      uint result = 0;\r\n      for (uint i = b.length-1; i+1 > 0; i--) {\r\n        uint c = uint(uint8(b[i]));\r\n        uint to_inc = c * ( 16 ** ((b.length - i-1) * 2));\r\n        result += to_inc;\r\n      }\r\n      return address(result);\r\n    }\r\n}\r\n",
  "sourcePath": "D:/PROGRAMMING/Github/Solidity-Smart-Contracts/solidity/contracts/Lottery.sol",
  "compiler": {
    "name": "solc",
    "version": "0.5.12+commit.7709ece9.Emscripten.clang"
  },
  "schemaVersion": "3.0.19",
  "updatedAt": "2019-12-20T07:26:13.864Z",
  "networkType": "ethereum",
  "devdoc": {
    "methods": {}
  },
  "userdoc": {
    "methods": {}
  }
}